{
  "_format": "hh-sol-artifact-1",
  "contractName": "Lottery",
  "sourceName": "contracts/Lottery.sol",
  "abi": [
    {
      "inputs": [
        {
          "internalType": "uint256",
          "name": "_purchaseRatio",
          "type": "uint256"
        },
        {
          "internalType": "uint256",
          "name": "_betPrice",
          "type": "uint256"
        },
        {
          "internalType": "uint256",
          "name": "_betFee",
          "type": "uint256"
        }
      ],
      "stateMutability": "nonpayable",
      "type": "constructor"
    },
    {
      "inputs": [],
      "name": "LotteryIsClose",
      "type": "error"
    },
    {
      "inputs": [],
      "name": "LotteryIsOpen",
      "type": "error"
    },
    {
      "inputs": [],
      "name": "NotEnoughMoney",
      "type": "error"
    },
    {
      "inputs": [
        {
          "internalType": "uint256",
          "name": "closingTime",
          "type": "uint256"
        },
        {
          "internalType": "uint256",
          "name": "currentTime",
          "type": "uint256"
        }
      ],
      "name": "TimestampPassed",
      "type": "error"
    },
    {
      "inputs": [
        {
          "internalType": "uint256",
          "name": "closingTime",
          "type": "uint256"
        },
        {
          "internalType": "uint256",
          "name": "currentTime",
          "type": "uint256"
        }
      ],
      "name": "TooSoonToClose",
      "type": "error"
    },
    {
      "anonymous": false,
      "inputs": [
        {
          "indexed": true,
          "internalType": "address",
          "name": "winner",
          "type": "address"
        },
        {
          "indexed": false,
          "internalType": "uint256",
          "name": "prize",
          "type": "uint256"
        }
      ],
      "name": "LotteryClosed",
      "type": "event"
    },
    {
      "anonymous": false,
      "inputs": [
        {
          "indexed": true,
          "internalType": "uint256",
          "name": "closingTimeStamp",
          "type": "uint256"
        }
      ],
      "name": "LotteryOpened",
      "type": "event"
    },
    {
      "anonymous": false,
      "inputs": [
        {
          "indexed": true,
          "internalType": "bytes32",
          "name": "role",
          "type": "bytes32"
        },
        {
          "indexed": true,
          "internalType": "bytes32",
          "name": "previousAdminRole",
          "type": "bytes32"
        },
        {
          "indexed": true,
          "internalType": "bytes32",
          "name": "newAdminRole",
          "type": "bytes32"
        }
      ],
      "name": "RoleAdminChanged",
      "type": "event"
    },
    {
      "anonymous": false,
      "inputs": [
        {
          "indexed": true,
          "internalType": "bytes32",
          "name": "role",
          "type": "bytes32"
        },
        {
          "indexed": true,
          "internalType": "address",
          "name": "account",
          "type": "address"
        },
        {
          "indexed": true,
          "internalType": "address",
          "name": "sender",
          "type": "address"
        }
      ],
      "name": "RoleGranted",
      "type": "event"
    },
    {
      "anonymous": false,
      "inputs": [
        {
          "indexed": true,
          "internalType": "bytes32",
          "name": "role",
          "type": "bytes32"
        },
        {
          "indexed": true,
          "internalType": "address",
          "name": "account",
          "type": "address"
        },
        {
          "indexed": true,
          "internalType": "address",
          "name": "sender",
          "type": "address"
        }
      ],
      "name": "RoleRevoked",
      "type": "event"
    },
    {
      "inputs": [],
      "name": "DEFAULT_ADMIN_ROLE",
      "outputs": [
        {
          "internalType": "bytes32",
          "name": "",
          "type": "bytes32"
        }
      ],
      "stateMutability": "view",
      "type": "function"
    },
    {
      "inputs": [],
      "name": "LOTTERY_ADMIN_ROLE",
      "outputs": [
        {
          "internalType": "bytes32",
          "name": "",
          "type": "bytes32"
        }
      ],
      "stateMutability": "view",
      "type": "function"
    },
    {
      "inputs": [],
      "name": "bet",
      "outputs": [],
      "stateMutability": "nonpayable",
      "type": "function"
    },
    {
      "inputs": [
        {
          "internalType": "uint8",
          "name": "times",
          "type": "uint8"
        }
      ],
      "name": "betMany",
      "outputs": [],
      "stateMutability": "nonpayable",
      "type": "function"
    },
    {
      "inputs": [
        {
          "internalType": "bytes",
          "name": "",
          "type": "bytes"
        }
      ],
      "name": "checkUpkeep",
      "outputs": [
        {
          "internalType": "bool",
          "name": "upkeepNeeded",
          "type": "bool"
        },
        {
          "internalType": "bytes",
          "name": "",
          "type": "bytes"
        }
      ],
      "stateMutability": "view",
      "type": "function"
    },
    {
      "inputs": [],
      "name": "closeLottery",
      "outputs": [],
      "stateMutability": "nonpayable",
      "type": "function"
    },
    {
      "inputs": [],
      "name": "getBetFee",
      "outputs": [
        {
          "internalType": "uint256",
          "name": "",
          "type": "uint256"
        }
      ],
      "stateMutability": "view",
      "type": "function"
    },
    {
      "inputs": [],
      "name": "getBetPrice",
      "outputs": [
        {
          "internalType": "uint256",
          "name": "",
          "type": "uint256"
        }
      ],
      "stateMutability": "view",
      "type": "function"
    },
    {
      "inputs": [],
      "name": "getBetsClosingTime",
      "outputs": [
        {
          "internalType": "uint256",
          "name": "",
          "type": "uint256"
        }
      ],
      "stateMutability": "view",
      "type": "function"
    },
    {
      "inputs": [],
      "name": "getBetsOpen",
      "outputs": [
        {
          "internalType": "bool",
          "name": "",
          "type": "bool"
        }
      ],
      "stateMutability": "view",
      "type": "function"
    },
    {
      "inputs": [],
      "name": "getOwnerPool",
      "outputs": [
        {
          "internalType": "uint256",
          "name": "",
          "type": "uint256"
        }
      ],
      "stateMutability": "view",
      "type": "function"
    },
    {
      "inputs": [],
      "name": "getPaymentToken",
      "outputs": [
        {
          "internalType": "address",
          "name": "",
          "type": "address"
        }
      ],
      "stateMutability": "view",
      "type": "function"
    },
    {
      "inputs": [
        {
          "internalType": "address",
          "name": "_winner",
          "type": "address"
        }
      ],
      "name": "getPrize",
      "outputs": [
        {
          "internalType": "uint256",
          "name": "",
          "type": "uint256"
        }
      ],
      "stateMutability": "view",
      "type": "function"
    },
    {
      "inputs": [],
      "name": "getPrizePool",
      "outputs": [
        {
          "internalType": "uint256",
          "name": "",
          "type": "uint256"
        }
      ],
      "stateMutability": "view",
      "type": "function"
    },
    {
      "inputs": [],
      "name": "getPurchaseRatio",
      "outputs": [
        {
          "internalType": "uint256",
          "name": "",
          "type": "uint256"
        }
      ],
      "stateMutability": "view",
      "type": "function"
    },
    {
      "inputs": [
        {
          "internalType": "bytes32",
          "name": "role",
          "type": "bytes32"
        }
      ],
      "name": "getRoleAdmin",
      "outputs": [
        {
          "internalType": "bytes32",
          "name": "",
          "type": "bytes32"
        }
      ],
      "stateMutability": "view",
      "type": "function"
    },
    {
      "inputs": [
        {
          "internalType": "bytes32",
          "name": "role",
          "type": "bytes32"
        },
        {
          "internalType": "address",
          "name": "account",
          "type": "address"
        }
      ],
      "name": "grantRole",
      "outputs": [],
      "stateMutability": "nonpayable",
      "type": "function"
    },
    {
      "inputs": [
        {
          "internalType": "bytes32",
          "name": "role",
          "type": "bytes32"
        },
        {
          "internalType": "address",
          "name": "account",
          "type": "address"
        }
      ],
      "name": "hasRole",
      "outputs": [
        {
          "internalType": "bool",
          "name": "",
          "type": "bool"
        }
      ],
      "stateMutability": "view",
      "type": "function"
    },
    {
      "inputs": [
        {
          "internalType": "uint256",
          "name": "closingTime",
          "type": "uint256"
        }
      ],
      "name": "openBets",
      "outputs": [],
      "stateMutability": "nonpayable",
      "type": "function"
    },
    {
      "inputs": [
        {
          "internalType": "uint256",
          "name": "amount",
          "type": "uint256"
        }
      ],
      "name": "ownerWithdraw",
      "outputs": [],
      "stateMutability": "nonpayable",
      "type": "function"
    },
    {
      "inputs": [
        {
          "internalType": "bytes",
          "name": "",
          "type": "bytes"
        }
      ],
      "name": "performUpkeep",
      "outputs": [],
      "stateMutability": "nonpayable",
      "type": "function"
    },
    {
      "inputs": [
        {
          "internalType": "uint256",
          "name": "amount",
          "type": "uint256"
        }
      ],
      "name": "prizeWithdraw",
      "outputs": [],
      "stateMutability": "nonpayable",
      "type": "function"
    },
    {
      "inputs": [],
      "name": "purchaseTokens",
      "outputs": [],
      "stateMutability": "payable",
      "type": "function"
    },
    {
      "inputs": [
        {
          "internalType": "bytes32",
          "name": "role",
          "type": "bytes32"
        },
        {
          "internalType": "address",
          "name": "account",
          "type": "address"
        }
      ],
      "name": "renounceRole",
      "outputs": [],
      "stateMutability": "nonpayable",
      "type": "function"
    },
    {
      "inputs": [
        {
          "internalType": "uint256",
          "name": "amount",
          "type": "uint256"
        }
      ],
      "name": "returnTokens",
      "outputs": [],
      "stateMutability": "nonpayable",
      "type": "function"
    },
    {
      "inputs": [
        {
          "internalType": "bytes32",
          "name": "role",
          "type": "bytes32"
        },
        {
          "internalType": "address",
          "name": "account",
          "type": "address"
        }
      ],
      "name": "revokeRole",
      "outputs": [],
      "stateMutability": "nonpayable",
      "type": "function"
    },
    {
      "inputs": [
        {
          "internalType": "bytes4",
          "name": "interfaceId",
          "type": "bytes4"
        }
      ],
      "name": "supportsInterface",
      "outputs": [
        {
          "internalType": "bool",
          "name": "",
          "type": "bool"
        }
      ],
      "stateMutability": "view",
      "type": "function"
    }
  ],
  "bytecode": "0x6101006040523480156200001257600080fd5b50604051620039553803806200395583398101604081905262000035916200018b565b608083905260a082905260c081905260405162000052906200017d565b604051809103906000f0801580156200006f573d6000803e3d6000fd5b506001600160a01b031660e05262000089600033620000dc565b620000a46000805160206200393583398151915233620000dc565b620000d360008051602062003935833981519152739e3f993ecf58eea03eca17a37bace4e94700a45d620000dc565b505050620001ba565b6000828152602081815260408083206001600160a01b038516845290915290205460ff1662000179576000828152602081815260408083206001600160a01b03851684529091529020805460ff19166001179055620001383390565b6001600160a01b0316816001600160a01b0316837f2f8788117e7eff1d82e926ec794901d17c78024a50270940304540a733656f0d60405160405180910390a45b5050565b611b128062001e2383390190565b600080600060608486031215620001a157600080fd5b8351925060208401519150604084015190509250925092565b60805160a05160c05160e051611be26200024160003960008181610543015281816106bc0152818161090e01528181610a9501528181610c040152610d700152600081816101f5015281816106e8015261080601526000818161059c0152818161070901526107cd015260008181610448015281816109390152610c810152611be26000f3fe6080604052600436106101ac5760003560e01c80633cc121e6116100ec57806391d148541161008a578063bd2178ce11610064578063bd2178ce14610507578063d41c3a651461051c578063d547741f1461056d578063db5ea8921461058d57600080fd5b806391d1485414610481578063990a49f5146104d2578063a217fddf146104f257600080fd5b80636e04ff0d116100c65780636e04ff0d146103f65780636fd09816146104245780637631c44914610439578063884bf67c1461046c57600080fd5b80633cc121e61461039e5780634585e33b146103be5780634cd456b0146103de57600080fd5b80632d5cd1d6116101595780633290ce29116101335780633290ce291461033657806333f707d11461033e57806336568abe1461035e5780633ae1786f1461037e57600080fd5b80632d5cd1d61461029f5780632d68714e146102e25780632f2ff15d1461031657600080fd5b8063248a9ca31161018a578063248a9ca31461023a5780632531455a1461026a578063292ecf131461027f57600080fd5b806301ffc9a7146101b15780630988c223146101e657806311610c2514610223575b600080fd5b3480156101bd57600080fd5b506101d16101cc3660046116a5565b6105c0565b60405190151581526020015b60405180910390f35b3480156101f257600080fd5b507f00000000000000000000000000000000000000000000000000000000000000005b6040519081526020016101dd565b34801561022f57600080fd5b50610238610659565b005b34801561024657600080fd5b506102156102553660046116e7565b60009081526020819052604090206001015490565b34801561027657600080fd5b50600254610215565b34801561028b57600080fd5b5061023861029a366004611700565b610897565b3480156102ab57600080fd5b506102156102ba36600461174c565b73ffffffffffffffffffffffffffffffffffffffff1660009081526005602052604090205490565b3480156102ee57600080fd5b506102157fd053bdac1126c96d2b4df55c1c08a748262e113c1b070772b24e29cb3809ad6381565b34801561032257600080fd5b50610238610331366004611767565b6108cd565b6102386108f7565b34801561034a57600080fd5b506102386103593660046116e7565b6109e3565b34801561036a57600080fd5b50610238610379366004611767565b610b17565b34801561038a57600080fd5b506102386103993660046116e7565b610bcf565b3480156103aa57600080fd5b506102386103b93660046116e7565b610cce565b3480156103ca57600080fd5b506102386103d9366004611793565b610df2565b3480156103ea57600080fd5b5060035460ff166101d1565b34801561040257600080fd5b50610416610411366004611834565b610dfa565b6040516101dd929190611971565b34801561043057600080fd5b50610238610e27565b34801561044557600080fd5b507f0000000000000000000000000000000000000000000000000000000000000000610215565b34801561047857600080fd5b50600154610215565b34801561048d57600080fd5b506101d161049c366004611767565b60009182526020828152604080842073ffffffffffffffffffffffffffffffffffffffff93909316845291905290205460ff1690565b3480156104de57600080fd5b506102386104ed3660046116e7565b611074565b3480156104fe57600080fd5b50610215600081565b34801561051357600080fd5b50600454610215565b34801561052857600080fd5b5060405173ffffffffffffffffffffffffffffffffffffffff7f00000000000000000000000000000000000000000000000000000000000000001681526020016101dd565b34801561057957600080fd5b50610238610588366004611767565b61117c565b34801561059957600080fd5b507f0000000000000000000000000000000000000000000000000000000000000000610215565b60007fffffffff0000000000000000000000000000000000000000000000000000000082167f7965db0b00000000000000000000000000000000000000000000000000000000148061065357507f01ffc9a7000000000000000000000000000000000000000000000000000000007fffffffff000000000000000000000000000000000000000000000000000000008316145b92915050565b60035460ff1615801561066e57506004544210155b156106a5576040517f644e785b00000000000000000000000000000000000000000000000000000000815260040160405180910390fd5b73ffffffffffffffffffffffffffffffffffffffff7f0000000000000000000000000000000000000000000000000000000000000000166323b872dd333061072d7f00000000000000000000000000000000000000000000000000000000000000007f00000000000000000000000000000000000000000000000000000000000000006119c3565b6040517fffffffff0000000000000000000000000000000000000000000000000000000060e086901b16815273ffffffffffffffffffffffffffffffffffffffff938416600482015292909116602483015260448201526064016020604051808303816000875af11580156107a6573d6000803e3d6000fd5b505050506040513d601f19601f820116820180604052508101906107ca91906119d6565b507f0000000000000000000000000000000000000000000000000000000000000000600160008282546107fd91906119c3565b925050819055507f00000000000000000000000000000000000000000000000000000000000000006002600082825461083691906119c3565b9091555050600680546001810182556000919091527ff652222313e28459528d920b65115c16c04f3efc82aaedc97be59f3f377c0d3f0180547fffffffffffffffffffffffff00000000000000000000000000000000000000001633179055565b60018160ff16116108a757600080fd5b60ff8116156108ca576108b8610659565b806108c2816119f8565b9150506108a7565b50565b6000828152602081905260409020600101546108e8816111a1565b6108f283836111ab565b505050565b73ffffffffffffffffffffffffffffffffffffffff7f0000000000000000000000000000000000000000000000000000000000000000166340c10f193361095e7f000000000000000000000000000000000000000000000000000000000000000034611a33565b6040517fffffffff0000000000000000000000000000000000000000000000000000000060e085901b16815273ffffffffffffffffffffffffffffffffffffffff90921660048301526024820152604401600060405180830381600087803b1580156109c957600080fd5b505af11580156109dd573d6000803e3d6000fd5b50505050565b7fd053bdac1126c96d2b4df55c1c08a748262e113c1b070772b24e29cb3809ad63610a0d816111a1565b600254821115610a49576040517fd721fcb200000000000000000000000000000000000000000000000000000000815260040160405180910390fd5b8160026000828254610a5b9190611a4a565b90915550506040517fa9059cbb000000000000000000000000000000000000000000000000000000008152336004820152602481018390527f000000000000000000000000000000000000000000000000000000000000000073ffffffffffffffffffffffffffffffffffffffff169063a9059cbb906044016020604051808303816000875af1158015610af3573d6000803e3d6000fd5b505050506040513d601f19601f820116820180604052508101906108f291906119d6565b73ffffffffffffffffffffffffffffffffffffffff81163314610bc1576040517f08c379a000000000000000000000000000000000000000000000000000000000815260206004820152602f60248201527f416363657373436f6e74726f6c3a2063616e206f6e6c792072656e6f756e636560448201527f20726f6c657320666f722073656c66000000000000000000000000000000000060648201526084015b60405180910390fd5b610bcb828261129b565b5050565b6040517f79cc6790000000000000000000000000000000000000000000000000000000008152336004820152602481018290527f000000000000000000000000000000000000000000000000000000000000000073ffffffffffffffffffffffffffffffffffffffff16906379cc679090604401600060405180830381600087803b158015610c5d57600080fd5b505af1158015610c71573d6000803e3d6000fd5b503392506108fc9150610ca690507f000000000000000000000000000000000000000000000000000000000000000084611a8c565b6040518115909202916000818181858888f19350505050158015610bcb573d6000803e3d6000fd5b33600090815260056020526040902054811115610d17576040517fd721fcb200000000000000000000000000000000000000000000000000000000815260040160405180910390fd5b3360009081526005602052604081208054839290610d36908490611a4a565b90915550506040517fa9059cbb000000000000000000000000000000000000000000000000000000008152336004820152602481018290527f000000000000000000000000000000000000000000000000000000000000000073ffffffffffffffffffffffffffffffffffffffff169063a9059cbb906044016020604051808303816000875af1158015610dce573d6000803e3d6000fd5b505050506040513d601f19601f82011682018060405250810190610bcb91906119d6565b610bcb610e27565b60035460045460009160609160ff909116151560011490421015818015610e1e5750805b93505050915091565b4260045410610e6c57600480546040517fc5d14f7c00000000000000000000000000000000000000000000000000000000815291820152426024820152604401610bb8565b60035460ff16610ea8576040517f644e785b00000000000000000000000000000000000000000000000000000000815260040160405180910390fd5b600654156110105760006006805480602002602001604051908101604052809291908181526020018280548015610f1557602002820191906000526020600020905b815473ffffffffffffffffffffffffffffffffffffffff168152600190910190602001808311610eea575b5050505050905060008151610f274490565b610f319190611aa0565b90506000828281518110610f4757610f47611ab4565b60200260200101519050600154600560008373ffffffffffffffffffffffffffffffffffffffff1673ffffffffffffffffffffffffffffffffffffffff1681526020019081526020016000206000828254610fa291906119c3565b909155505060015460405190815273ffffffffffffffffffffffffffffffffffffffff8216907f8decdab3882f2c3ebd9f1dfb8abb3435e8ab2085dc6adf63f5649401c5cd11bc9060200160405180910390a26000600181905561100890600690611673565b50505061104a565b6001546040519081526000907f8decdab3882f2c3ebd9f1dfb8abb3435e8ab2085dc6adf63f5649401c5cd11bc9060200160405180910390a25b600380547fffffffffffffffffffffffffffffffffffffffffffffffffffffffffffffff00169055565b7fd053bdac1126c96d2b4df55c1c08a748262e113c1b070772b24e29cb3809ad6361109e816111a1565b60035460ff16156110db576040517f94d05b1000000000000000000000000000000000000000000000000000000000815260040160405180910390fd5b42821161111d576040517fb7c7ed6300000000000000000000000000000000000000000000000000000000815260048101839052426024820152604401610bb8565b600380547fffffffffffffffffffffffffffffffffffffffffffffffffffffffffffffff00166001179055600482905560405182907fb250c542ab4a9cd3c62e64f9ed76631d0e2fc336bf269fb392767bc5f8964bc390600090a25050565b600082815260208190526040902060010154611197816111a1565b6108f2838361129b565b6108ca8133611352565b60008281526020818152604080832073ffffffffffffffffffffffffffffffffffffffff8516845290915290205460ff16610bcb5760008281526020818152604080832073ffffffffffffffffffffffffffffffffffffffff85168452909152902080547fffffffffffffffffffffffffffffffffffffffffffffffffffffffffffffff0016600117905561123d3390565b73ffffffffffffffffffffffffffffffffffffffff168173ffffffffffffffffffffffffffffffffffffffff16837f2f8788117e7eff1d82e926ec794901d17c78024a50270940304540a733656f0d60405160405180910390a45050565b60008281526020818152604080832073ffffffffffffffffffffffffffffffffffffffff8516845290915290205460ff1615610bcb5760008281526020818152604080832073ffffffffffffffffffffffffffffffffffffffff8516808552925280832080547fffffffffffffffffffffffffffffffffffffffffffffffffffffffffffffff0016905551339285917ff6391f5c32d9c69d2a47ea670b442974b53935d1edc7fd64eb21e047a839171b9190a45050565b60008281526020818152604080832073ffffffffffffffffffffffffffffffffffffffff8516845290915290205460ff16610bcb576113908161140a565b61139b836020611429565b6040516020016113ac929190611ae3565b604080517fffffffffffffffffffffffffffffffffffffffffffffffffffffffffffffffe0818403018152908290527f08c379a0000000000000000000000000000000000000000000000000000000008252610bb891600401611b64565b606061065373ffffffffffffffffffffffffffffffffffffffff831660145b60606000611438836002611a33565b6114439060026119c3565b67ffffffffffffffff81111561145b5761145b611805565b6040519080825280601f01601f191660200182016040528015611485576020820181803683370190505b5090507f3000000000000000000000000000000000000000000000000000000000000000816000815181106114bc576114bc611ab4565b60200101907effffffffffffffffffffffffffffffffffffffffffffffffffffffffffffff1916908160001a9053507f78000000000000000000000000000000000000000000000000000000000000008160018151811061151f5761151f611ab4565b60200101907effffffffffffffffffffffffffffffffffffffffffffffffffffffffffffff1916908160001a905350600061155b846002611a33565b6115669060016119c3565b90505b6001811115611603577f303132333435363738396162636465660000000000000000000000000000000085600f16601081106115a7576115a7611ab4565b1a60f81b8282815181106115bd576115bd611ab4565b60200101907effffffffffffffffffffffffffffffffffffffffffffffffffffffffffffff1916908160001a90535060049490941c936115fc81611b77565b9050611569565b50831561166c576040517f08c379a000000000000000000000000000000000000000000000000000000000815260206004820181905260248201527f537472696e67733a20686578206c656e67746820696e73756666696369656e746044820152606401610bb8565b9392505050565b50805460008255906000526020600020908101906108ca91905b808211156116a1576000815560010161168d565b5090565b6000602082840312156116b757600080fd5b81357fffffffff000000000000000000000000000000000000000000000000000000008116811461166c57600080fd5b6000602082840312156116f957600080fd5b5035919050565b60006020828403121561171257600080fd5b813560ff8116811461166c57600080fd5b803573ffffffffffffffffffffffffffffffffffffffff8116811461174757600080fd5b919050565b60006020828403121561175e57600080fd5b61166c82611723565b6000806040838503121561177a57600080fd5b8235915061178a60208401611723565b90509250929050565b600080602083850312156117a657600080fd5b823567ffffffffffffffff808211156117be57600080fd5b818501915085601f8301126117d257600080fd5b8135818111156117e157600080fd5b8660208285010111156117f357600080fd5b60209290920196919550909350505050565b7f4e487b7100000000000000000000000000000000000000000000000000000000600052604160045260246000fd5b60006020828403121561184657600080fd5b813567ffffffffffffffff8082111561185e57600080fd5b818401915084601f83011261187257600080fd5b81358181111561188457611884611805565b604051601f82017fffffffffffffffffffffffffffffffffffffffffffffffffffffffffffffffe0908116603f011681019083821181831017156118ca576118ca611805565b816040528281528760208487010111156118e357600080fd5b826020860160208301376000928101602001929092525095945050505050565b60005b8381101561191e578181015183820152602001611906565b50506000910152565b6000815180845261193f816020860160208601611903565b601f017fffffffffffffffffffffffffffffffffffffffffffffffffffffffffffffffe0169290920160200192915050565b821515815260406020820152600061198c6040830184611927565b949350505050565b7f4e487b7100000000000000000000000000000000000000000000000000000000600052601160045260246000fd5b8082018082111561065357610653611994565b6000602082840312156119e857600080fd5b8151801515811461166c57600080fd5b600060ff821680611a0b57611a0b611994565b7fffffffffffffffffffffffffffffffffffffffffffffffffffffffffffffffff0192915050565b808202811582820484141761065357610653611994565b8181038181111561065357610653611994565b7f4e487b7100000000000000000000000000000000000000000000000000000000600052601260045260246000fd5b600082611a9b57611a9b611a5d565b500490565b600082611aaf57611aaf611a5d565b500690565b7f4e487b7100000000000000000000000000000000000000000000000000000000600052603260045260246000fd5b7f416363657373436f6e74726f6c3a206163636f756e7420000000000000000000815260008351611b1b816017850160208801611903565b7f206973206d697373696e6720726f6c65200000000000000000000000000000006017918401918201528351611b58816028840160208801611903565b01602801949350505050565b60208152600061166c6020830184611927565b600081611b8657611b86611994565b507fffffffffffffffffffffffffffffffffffffffffffffffffffffffffffffffff019056fea264697066735822122060c55b4a8e35f729e8f4ef08e4f3b9bbbad5b1998f8e65d564e2bc22ae1b750964736f6c6343000811003360806040523480156200001157600080fd5b506040518060400160405280601381526020017f4c6f7474657279546f6b656e436c617373696300000000000000000000000000815250604051806040016040528060038152602001624c544360e81b815250816003908162000075919062000212565b50600462000084828262000212565b506200009691506000905033620000c8565b620000c27f9f2df0fed2c77648de5860a4cc508cd0818c85b8b8a1ab4ceeef8d981c8956a633620000c8565b620002de565b60008281526005602090815260408083206001600160a01b038516845290915290205460ff16620001695760008281526005602090815260408083206001600160a01b03851684529091529020805460ff19166001179055620001283390565b6001600160a01b0316816001600160a01b0316837f2f8788117e7eff1d82e926ec794901d17c78024a50270940304540a733656f0d60405160405180910390a45b5050565b634e487b7160e01b600052604160045260246000fd5b600181811c908216806200019857607f821691505b602082108103620001b957634e487b7160e01b600052602260045260246000fd5b50919050565b601f8211156200020d57600081815260208120601f850160051c81016020861015620001e85750805b601f850160051c820191505b818110156200020957828155600101620001f4565b5050505b505050565b81516001600160401b038111156200022e576200022e6200016d565b62000246816200023f845462000183565b84620001bf565b602080601f8311600181146200027e5760008415620002655750858301515b600019600386901b1c1916600185901b17855562000209565b600085815260208120601f198616915b82811015620002af578886015182559484019460019091019084016200028e565b5085821015620002ce5787850151600019600388901b60f8161c191681555b5050505050600190811b01905550565b61182480620002ee6000396000f3fe608060405234801561001057600080fd5b50600436106101825760003560e01c806342966c68116100d8578063a217fddf1161008c578063d539139311610066578063d539139314610354578063d547741f1461037b578063dd62ed3e1461038e57600080fd5b8063a217fddf14610326578063a457c2d71461032e578063a9059cbb1461034157600080fd5b806379cc6790116100bd57806379cc6790146102c557806391d14854146102d857806395d89b411461031e57600080fd5b806342966c681461027c57806370a082311461028f57600080fd5b8063248a9ca31161013a57806336568abe1161011457806336568abe14610243578063395093511461025657806340c10f191461026957600080fd5b8063248a9ca3146101fc5780632f2ff15d1461021f578063313ce5671461023457600080fd5b8063095ea7b31161016b578063095ea7b3146101c457806318160ddd146101d757806323b872dd146101e957600080fd5b806301ffc9a71461018757806306fdde03146101af575b600080fd5b61019a61019536600461145e565b6103d4565b60405190151581526020015b60405180910390f35b6101b761046d565b6040516101a691906114c4565b61019a6101d236600461153e565b6104ff565b6002545b6040519081526020016101a6565b61019a6101f7366004611568565b610517565b6101db61020a3660046115a4565b60009081526005602052604090206001015490565b61023261022d3660046115bd565b61053b565b005b604051601281526020016101a6565b6102326102513660046115bd565b610565565b61019a61026436600461153e565b61061d565b61023261027736600461153e565b610669565b61023261028a3660046115a4565b61069d565b6101db61029d3660046115e9565b73ffffffffffffffffffffffffffffffffffffffff1660009081526020819052604090205490565b6102326102d336600461153e565b6106aa565b61019a6102e63660046115bd565b600091825260056020908152604080842073ffffffffffffffffffffffffffffffffffffffff93909316845291905290205460ff1690565b6101b76106bf565b6101db600081565b61019a61033c36600461153e565b6106ce565b61019a61034f36600461153e565b61079f565b6101db7f9f2df0fed2c77648de5860a4cc508cd0818c85b8b8a1ab4ceeef8d981c8956a681565b6102326103893660046115bd565b6107ad565b6101db61039c366004611604565b73ffffffffffffffffffffffffffffffffffffffff918216600090815260016020908152604080832093909416825291909152205490565b60007fffffffff0000000000000000000000000000000000000000000000000000000082167f7965db0b00000000000000000000000000000000000000000000000000000000148061046757507f01ffc9a7000000000000000000000000000000000000000000000000000000007fffffffff000000000000000000000000000000000000000000000000000000008316145b92915050565b60606003805461047c9061162e565b80601f01602080910402602001604051908101604052809291908181526020018280546104a89061162e565b80156104f55780601f106104ca576101008083540402835291602001916104f5565b820191906000526020600020905b8154815290600101906020018083116104d857829003601f168201915b5050505050905090565b60003361050d8185856107d2565b5060019392505050565b600033610525858285610985565b610530858585610a5c565b506001949350505050565b60008281526005602052604090206001015461055681610ccb565b6105608383610cd5565b505050565b73ffffffffffffffffffffffffffffffffffffffff8116331461060f576040517f08c379a000000000000000000000000000000000000000000000000000000000815260206004820152602f60248201527f416363657373436f6e74726f6c3a2063616e206f6e6c792072656e6f756e636560448201527f20726f6c657320666f722073656c66000000000000000000000000000000000060648201526084015b60405180910390fd5b6106198282610dc9565b5050565b33600081815260016020908152604080832073ffffffffffffffffffffffffffffffffffffffff8716845290915281205490919061050d90829086906106649087906116b0565b6107d2565b7f9f2df0fed2c77648de5860a4cc508cd0818c85b8b8a1ab4ceeef8d981c8956a661069381610ccb565b6105608383610e84565b6106a73382610f77565b50565b6106b5823383610985565b6106198282610f77565b60606004805461047c9061162e565b33600081815260016020908152604080832073ffffffffffffffffffffffffffffffffffffffff8716845290915281205490919083811015610792576040517f08c379a000000000000000000000000000000000000000000000000000000000815260206004820152602560248201527f45524332303a2064656372656173656420616c6c6f77616e63652062656c6f7760448201527f207a65726f0000000000000000000000000000000000000000000000000000006064820152608401610606565b61053082868684036107d2565b60003361050d818585610a5c565b6000828152600560205260409020600101546107c881610ccb565b6105608383610dc9565b73ffffffffffffffffffffffffffffffffffffffff8316610874576040517f08c379a0000000000000000000000000000000000000000000000000000000008152602060048201526024808201527f45524332303a20617070726f76652066726f6d20746865207a65726f2061646460448201527f72657373000000000000000000000000000000000000000000000000000000006064820152608401610606565b73ffffffffffffffffffffffffffffffffffffffff8216610917576040517f08c379a000000000000000000000000000000000000000000000000000000000815260206004820152602260248201527f45524332303a20617070726f766520746f20746865207a65726f20616464726560448201527f73730000000000000000000000000000000000000000000000000000000000006064820152608401610606565b73ffffffffffffffffffffffffffffffffffffffff83811660008181526001602090815260408083209487168084529482529182902085905590518481527f8c5be1e5ebec7d5bd14f71427d1e84f3dd0314c0f7b2291e5b200ac8c7c3b925910160405180910390a3505050565b73ffffffffffffffffffffffffffffffffffffffff8381166000908152600160209081526040808320938616835292905220547fffffffffffffffffffffffffffffffffffffffffffffffffffffffffffffffff8114610a565781811015610a49576040517f08c379a000000000000000000000000000000000000000000000000000000000815260206004820152601d60248201527f45524332303a20696e73756666696369656e7420616c6c6f77616e63650000006044820152606401610606565b610a5684848484036107d2565b50505050565b73ffffffffffffffffffffffffffffffffffffffff8316610aff576040517f08c379a000000000000000000000000000000000000000000000000000000000815260206004820152602560248201527f45524332303a207472616e736665722066726f6d20746865207a65726f20616460448201527f64726573730000000000000000000000000000000000000000000000000000006064820152608401610606565b73ffffffffffffffffffffffffffffffffffffffff8216610ba2576040517f08c379a000000000000000000000000000000000000000000000000000000000815260206004820152602360248201527f45524332303a207472616e7366657220746f20746865207a65726f206164647260448201527f65737300000000000000000000000000000000000000000000000000000000006064820152608401610606565b73ffffffffffffffffffffffffffffffffffffffff831660009081526020819052604090205481811015610c58576040517f08c379a000000000000000000000000000000000000000000000000000000000815260206004820152602660248201527f45524332303a207472616e7366657220616d6f756e742065786365656473206260448201527f616c616e636500000000000000000000000000000000000000000000000000006064820152608401610606565b73ffffffffffffffffffffffffffffffffffffffff848116600081815260208181526040808320878703905593871680835291849020805487019055925185815290927fddf252ad1be2c89b69c2b068fc378daa952ba7f163c4a11628f55a4df523b3ef910160405180910390a3610a56565b6106a7813361113b565b600082815260056020908152604080832073ffffffffffffffffffffffffffffffffffffffff8516845290915290205460ff1661061957600082815260056020908152604080832073ffffffffffffffffffffffffffffffffffffffff85168452909152902080547fffffffffffffffffffffffffffffffffffffffffffffffffffffffffffffff00166001179055610d6b3390565b73ffffffffffffffffffffffffffffffffffffffff168173ffffffffffffffffffffffffffffffffffffffff16837f2f8788117e7eff1d82e926ec794901d17c78024a50270940304540a733656f0d60405160405180910390a45050565b600082815260056020908152604080832073ffffffffffffffffffffffffffffffffffffffff8516845290915290205460ff161561061957600082815260056020908152604080832073ffffffffffffffffffffffffffffffffffffffff8516808552925280832080547fffffffffffffffffffffffffffffffffffffffffffffffffffffffffffffff0016905551339285917ff6391f5c32d9c69d2a47ea670b442974b53935d1edc7fd64eb21e047a839171b9190a45050565b73ffffffffffffffffffffffffffffffffffffffff8216610f01576040517f08c379a000000000000000000000000000000000000000000000000000000000815260206004820152601f60248201527f45524332303a206d696e7420746f20746865207a65726f2061646472657373006044820152606401610606565b8060026000828254610f1391906116b0565b909155505073ffffffffffffffffffffffffffffffffffffffff8216600081815260208181526040808320805486019055518481527fddf252ad1be2c89b69c2b068fc378daa952ba7f163c4a11628f55a4df523b3ef910160405180910390a35050565b73ffffffffffffffffffffffffffffffffffffffff821661101a576040517f08c379a000000000000000000000000000000000000000000000000000000000815260206004820152602160248201527f45524332303a206275726e2066726f6d20746865207a65726f2061646472657360448201527f73000000000000000000000000000000000000000000000000000000000000006064820152608401610606565b73ffffffffffffffffffffffffffffffffffffffff8216600090815260208190526040902054818110156110d0576040517f08c379a000000000000000000000000000000000000000000000000000000000815260206004820152602260248201527f45524332303a206275726e20616d6f756e7420657863656564732062616c616e60448201527f63650000000000000000000000000000000000000000000000000000000000006064820152608401610606565b73ffffffffffffffffffffffffffffffffffffffff83166000818152602081815260408083208686039055600280548790039055518581529192917fddf252ad1be2c89b69c2b068fc378daa952ba7f163c4a11628f55a4df523b3ef910160405180910390a3505050565b600082815260056020908152604080832073ffffffffffffffffffffffffffffffffffffffff8516845290915290205460ff166106195761117b816111f5565b611186836020611214565b6040516020016111979291906116c3565b604080517fffffffffffffffffffffffffffffffffffffffffffffffffffffffffffffffe0818403018152908290527f08c379a0000000000000000000000000000000000000000000000000000000008252610606916004016114c4565b606061046773ffffffffffffffffffffffffffffffffffffffff831660145b60606000611223836002611744565b61122e9060026116b0565b67ffffffffffffffff8111156112465761124661175b565b6040519080825280601f01601f191660200182016040528015611270576020820181803683370190505b5090507f3000000000000000000000000000000000000000000000000000000000000000816000815181106112a7576112a761178a565b60200101907effffffffffffffffffffffffffffffffffffffffffffffffffffffffffffff1916908160001a9053507f78000000000000000000000000000000000000000000000000000000000000008160018151811061130a5761130a61178a565b60200101907effffffffffffffffffffffffffffffffffffffffffffffffffffffffffffff1916908160001a9053506000611346846002611744565b6113519060016116b0565b90505b60018111156113ee577f303132333435363738396162636465660000000000000000000000000000000085600f16601081106113925761139261178a565b1a60f81b8282815181106113a8576113a861178a565b60200101907effffffffffffffffffffffffffffffffffffffffffffffffffffffffffffff1916908160001a90535060049490941c936113e7816117b9565b9050611354565b508315611457576040517f08c379a000000000000000000000000000000000000000000000000000000000815260206004820181905260248201527f537472696e67733a20686578206c656e67746820696e73756666696369656e746044820152606401610606565b9392505050565b60006020828403121561147057600080fd5b81357fffffffff000000000000000000000000000000000000000000000000000000008116811461145757600080fd5b60005b838110156114bb5781810151838201526020016114a3565b50506000910152565b60208152600082518060208401526114e38160408501602087016114a0565b601f017fffffffffffffffffffffffffffffffffffffffffffffffffffffffffffffffe0169190910160400192915050565b803573ffffffffffffffffffffffffffffffffffffffff8116811461153957600080fd5b919050565b6000806040838503121561155157600080fd5b61155a83611515565b946020939093013593505050565b60008060006060848603121561157d57600080fd5b61158684611515565b925061159460208501611515565b9150604084013590509250925092565b6000602082840312156115b657600080fd5b5035919050565b600080604083850312156115d057600080fd5b823591506115e060208401611515565b90509250929050565b6000602082840312156115fb57600080fd5b61145782611515565b6000806040838503121561161757600080fd5b61162083611515565b91506115e060208401611515565b600181811c9082168061164257607f821691505b60208210810361167b577f4e487b7100000000000000000000000000000000000000000000000000000000600052602260045260246000fd5b50919050565b7f4e487b7100000000000000000000000000000000000000000000000000000000600052601160045260246000fd5b8082018082111561046757610467611681565b7f416363657373436f6e74726f6c3a206163636f756e74200000000000000000008152600083516116fb8160178501602088016114a0565b7f206973206d697373696e6720726f6c652000000000000000000000000000000060179184019182015283516117388160288401602088016114a0565b01602801949350505050565b808202811582820484141761046757610467611681565b7f4e487b7100000000000000000000000000000000000000000000000000000000600052604160045260246000fd5b7f4e487b7100000000000000000000000000000000000000000000000000000000600052603260045260246000fd5b6000816117c8576117c8611681565b507fffffffffffffffffffffffffffffffffffffffffffffffffffffffffffffffff019056fea2646970667358221220dded2b1fc4f1a5abc27d361dee4380017e0e2a2b0f898627909a3e61037a6f5264736f6c63430008110033d053bdac1126c96d2b4df55c1c08a748262e113c1b070772b24e29cb3809ad63",
  "linkReferences": {},
  "deployedLinkReferences": {}
}